S00F00006D69646552504D2E7372656387
S31500000000001AFE1F3D4B00000D460000394B000054
S31500000010394B0000394B0000394B0000000000004E
S31500000020000000000000000000000000394B000046
S31500000030394B000000000000394B0000394B00002E
S31500000040290F0000FFFFFFFFFFFFFFFFFFFFFFFF7E
S31500000050FFFFFFFFFFFFFFFFFFFFFFFFFFFFFFFFAA
S31500000060FFFFFFFFFFFFFFFFFFFFFFFFFFFFFFFF9A
S31500000070FFFFFFFFFFFFFFFFFFFFFFFFFFFFFFFF8A
S31500000080FFFFFFFFFFFFFFFFFFFFFFFFFFFFFFFF7A
S31500000400FFFFFFFFFFFDFFFFFFFFFFFFFFFFFFFFF8
S31500000410FFFFFFFFFFFFFFFFFFFFFFFFFFFFFFFFE6
S31500000420FFFFFFFFFFFFFFFFFFFFFFFFFFFFFFFFD6
S31500000430FFFFFFFFFFFFFFFFFFFFFFFFFFFFFFFFC6
S31500000440FFFFFFFFFFFFFFFFFFFFFFFFFFFFFFFFB6
S31500000450FFFFFFFFFFFFFFFFFFFFFFFFFFFFFFFFA6
S31500000460FFFFFFFFFFFFFFFFFFFFFFFFFFFFFFFF96
S31500000470FFFFFFFFFFFFFFFFFFFFFFFFFFFFFFFF86
S31500000480FFFFFFFFFFFFFFFFFFFFFFFFFFFFFFFF76
S31500000490FFFFFFFFFFFFFFFFFFFFFFFFFFFFFFFF66
S315000004A0FFFFFFFFFFFFFFFFFFFFFFFFFFFFFFFF56
S315000004B0FFFFFFFFFFFFFFFFFFFFFFFFFFFFFFFF46
S315000004C0FFFFFFFFFFFFFFFFFFFFFFFFFFFFFFFF36
S315000004D0FFFFFFFFFFFFFFFFFFFFFFFFFFFFFFFF26
S315000004E0FFFFFFFFFFFFFFFFFFFFFFFFFFFFFFFF16
S315000004F0FFFFFFFFFFFFFFFFFFFFFFFFFFFFFFFF06
S315000005006801FE1F01000600200000002000010017
S315000005102F0000002F0001000C0001001100000058
S31500000520300000003000010024000000240001001B
S315000005302400020024000300240004002400050017
S315000005401300000017000000230000002100000037
S31500000550210001000700000007000100070002005B
S315000005600700030007000400070005000700060057
S315000005700700070012000000440000000800000009
S315000005800B00000041000000400000004000010098
S3150000059004000000430000002B0000002B000A00AE
S315000005A02B000B002B000C002B000D002B00010074
S315000005B02B0002002B0003002B0004002B0005007B
S315000005C02B0006002B0007002B0008002B0009005B
S315000005D00600000006000A0006000B0006000C00DC
S315000005E006000D0006000E0006000F0006000100C2
S315000005F006000200060003000600040006000500CF
S3150000060006000600060007000600080006000900AE
S315000006101500000015000100150002003100000061
S315000006202A00000045000000100000000301000041
S3150000063003000000030001000F0000000D00000091
S315000006402D000000420000002C0000002C000100DC
S315000006502C0002002C0003003200000028000000DD
S31500000660180000001400000014000100140002002D
S315000006701400030014000400140005001400060012
S3150000068014000700140008001400090034000000DC
S3150000069034000100160000001600010035000000BD
S315000006A03600000036000100220000003300000082
S315000006B0330100002900000010B5054C237833B93A
S315000006C0044B13B10448AFF300800123237010BD1F
S315000006D0BC00FE1F00000000685F000008B5034B69
S315000006E01BB103490348AFF3008008BD00000000BA
S315000006F0C000FE1F685F0000114A136870B4040A48
S315000007009C4216D25668C0B200F11005012356F875
S31500000710246003FA05F535420BD069B100EB0410ED
S31500000720936853F82030C3F3400300200B7070BC6D
S315000007307047032070BC7047184670BC704700BFF6
S315000007408400FE1F084B1A68000A904207D241B186
S31500000750DA684301043200209B580B80704703205F
S3150000076070470120704700BF8400FE1F084B1A68BF
S31500000770000A904208D249B1DA68430104320020E7
S315000007809B581B0C0B807047032070470120704755
S315000007908400FE1F70B4134C2268030A93421BD2D6
S315000007A06668C0B200F11005012256F8236002FA0D
S315000007B005F5354210D091B1E4685B01043402FAC4
S315000007C000F01C5983B233EA144313BF0020002003
S315000007D00A70087070BC7047032070BC70471046E2
S315000007E070BC70478400FE1F0C4B10B41C68000AD6
S315000007F0A0420ED26AB1DB685DF8044B083303EB06
S31500000800401022EA01030A4042EA03424260002005
S31500000810704703205DF8044B704700BF8400FE1F3D
S31500000820144A70B41468030AA3421DD25668C0B2B3
S3150000083000F11004012556F8236005FA04F4344249
S3150000084012D0A94210D8D26802F1080202EB431373
S3150000085005FA00F05D680AD045EA0040000C000485
S31500000860586070BC00207047032070BC7047284356
S3150000087080B2F5E78400FE1F18B1034B0360002029
S3150000088070470120704700BF06010201012920D8E8
S3150000089070B4124C2368020A9A4217D26668C0B234
S315000008A000F11005012356F8226003FA05F53542DA
S315000008B00CD003FA00F083B269B10020E16852015E
S315000008C008311843505070BC00207047032070BC9C
S315000008D070470320704700040B46EFE78400FE1FB5
S315000008E0012957D82E4BF0B41C68020AA2424ED2F8
S315000008F05D68C0B200F11006012455F82250B440DC
S315000009002C4244D000EB02109C681D6954F820303C
S31500000910002941D043F00401224E0E40EFF3108728
S31500000920012383F31088204B1A8892B222B94FF024
S31500000930400CEA7085F803C01A88013292B21A8018
S3150000094087F31088CF0354F8202007D5174F22F4D9
S3150000095080320F4044F8202044F8207044F820608C
S31500000960EFF31081012282F310881A8892B21AB12D
S315000009701A88013A92B21A801B889BB213B9802258
S31500000980EB70EA7081F310880020F0BC70470320FA
S31500000990F0BC70470320704723F00401BCE700BF9A
S315000009A08400FE1FD5FC011FD800FE1FD5FC001FCA
S315000009B0B2B10C4B10B41C68000AA0420CD2DB6822
S315000009C022EA0104400108330A4042EA0442C250C6
S315000009D05DF8044B0020704703205DF8044B704718
S315000009E0032070478400FE1FD2B10E4B70B41C6802
S315000009F0000AA04211D2DD68400102EA01032E5826
S31500000A002C58334361EA02029BB2210C1A400904B6
S31500000A100A432A50002070BC7047032070BC704700
S31500000A20032070478400FE1FF8B500283BD00968F4
S31500000A301E4F4FF0000C01EBC00066464FF0010E52
S31500000A408D8840F2024295424FF000030BD10C68AC
S31500000A500EFA03F204F0B854D2B2B4F1807F0CBFA0
S31500000A60164342EA0C0C0133032B06D037F8132049
S31500000A709542ECD00133032BF8D108318142DFD106
S31500000A806FEA0C0C5FFA8CF4012004F027F8084B8F
S31500000A9093F8BB241643264083F8BB640120BDE8C7
S31500000AA0F84003F0EBBF0646FF24EDE7EC540000E8
S31500000AB000E0014070B582B002AB002403F8044D9B
S31500000AC0054618460E4603F081FD9DF80430DB0707
S31500000AD015D5202D10D8012E0ED80A4B1B691A7871
S31500000AE013BF154302F0300222EA050505F0300572
S31500000AF020461D7002B070BD032002B070BD0620F6
S31500000B0002B070BD8400FE1F2DE9F0470746011DA7
S31500000B100088FFF789FF3B88002B4ED0DFF8A4E062
S31500000B20274900224FF0010C4FF0400A4FF0800990
S31500000B307B68DEF8106053F83250DEF8084003EBAD
S31500000B40C2039B88180ADBB203EB0013EFF310888D
S31500000B508CF31088088880B210B9F07086F803A06C
S31500000B600888013080B2088088F3108815F4803F29
S31500000B7054F8230007D020F4803025F4803844F858
S31500000B80230044F8238044F82350EFF310808CF3BD
S31500000B9010880B889BB21BB10B88013B9BB20B8064
S31500000BA00B889BB213B9F37086F8039080F3108814
S31500000BB001323B8892B29342BAD80020BDE8F08752
S31500000BC0D800FE1F8400FE1F18B143680BB1FFF763
S31500000BD09BBF0120704700BF00283AD04368002B16
S31500000BE037D02DE9F04186B006AD002309220193E6
S31500000BF005F8142D184A194CD2F80C8002930646B3
S31500000C00CDE90333059302A92846C047029BE3605A
S31500000C100A22BDF80C308DF8042002A9059A6260FC
S31500000C20284601272360C047029B8DF80570284699
S31500000C3002A9A360C0477368029A22612BB13046AD
S31500000C40FFF762FF06B0BDE8F081384606B0BDE8A2
S31500000C50F0810120704700BFCC5500008400FE1FC4
S31500000C602DE9F0412F4C23684FEA1028984584B0AF
S31500000C7053D26268C5B205F11003012752F8282045
S31500000C8007FA03F3134248D00E4604A902AA034604
S31500000C9041F80C2D3846ADF80C300296ADF80070D0
S31500000CA005EB0815FFF7C0FE2169A068EFF3108475
S31500000CB087F310881C4B1A8892B212B94027CA7063
S31500000CC0CF701A88013292B21A8084F31088F40326
S31500000CD050F8252007D522F4803226F4803440F8D7
S31500000CE0252040F8254040F82560EFF310800122CA
S31500000CF082F310881A8892B21AB11A88013A92B20F
S31500000D001A801B889BB213B98022CB70CA7080F3FD
S31500000D101088002004B0BDE8F081032004B0BDE8CF
S31500000D20F08100BF8400FE1FD800FE1F80B1094B72
S31500000D3002689A420AD110B44468427CA35C61F30B
S31500000D400103A35400205DF8044B70470720704749
S31500000D50012070475543490068B1084B02689A4222
S31500000D6007D14168427C8B5C43F080038B540020A2
S31500000D707047072070470120704700BF5543490060
S31500000D8068B1084B02689A4207D14168427C8B5C85
S31500000D906FF3C7138B54002070470720704701205C
S31500000DA0704700BF5543490020B1034B1B680360E1
S31500000DB000207047012070471455000090B11A4B6F
S31500000DC002689A420CD190F9103013F1210F29D004
S31500000DD0002B10B508DA184603F096FD002010BD6A
S31500000DE007207047012070475909203101220F4C16
S31500000DF003F01F0302FA03F344F82130BFF34F8FC9
S31500000E00BFF36F8F90F91030002BE4DB590903F024
S31500000E101F006031824044F82120184603F074FD1B
S31500000E20002010BD642070475543490000E100E0F2
S31500000E3048B3234B02689A4223D130B5044683B0A7
S31500000E4090F91000637CADF806300022062310F1FD
S31500000E50210FADF804208DF804300BD0904214DA3F
S31500000E6003F052FD174B94F910201B6853F83230EB
S31500000E7000221A6001A803F0A7FD0020206003B03D
S31500000E8030BD0720704701207047420920320123F8
S31500000E900D4900F01F0003FA00F041F82200BFF3ED
S31500000EA04F8FBFF36F8F94F910000028D8DB4209EB
S31500000EB0603200F01F05AB4041F82230D0E700BF9A
S31500000EC0554349005C5B000000E100E0A8B1154B0A
S31500000ED002689A420FD190F9103013F1210F1ED0FB
S31500000EE010B50446184603F00FFD94F91020002AA9
S31500000EF005DA002010BD072070470120704753090E
S31500000F009B0003F1604303F56143012102F01F02D8
S31500000F1001FA02F2C3F8802100201A6010BD642095
S31500000F20704700BF5543490000B583B0EFF3038314
S31500000F300D4A0093103B12685BB252F833301B68BF
S31500000F409A6832B102A8D9685B7C019340F8081D03
S31500000F509047EFF30383A3F1100040B2009303F030
S31500000F60D3FC03B05DF804FB5C5B0000F0B583B016
S31500000F7002AB002443F8044D15461F4E44801A4622
S31500000F800C463369297898479DF904302374A0B933
S31500000F9013F1210F11D06A7818491201002BD2B231
S31500000FA0086822DB03F1604101F5614181F8002305
S31500000FB050F833102A790C600AB903B0F0BD184610
S31500000FC003F0A2FC94F91020002AF6DB53099B00DB
S31500000FD003F1604303F5614302F01F02012101FAA8
S31500000FE002F2C3F880211A60E7E7054903F00F060D
S31500000FF031440A76DCE700BFCC5500005C5B00009C
S31500001000FCEC00E0F0B587B000294CD000284AD0AF
S3150000101006462C4800230622CDE90133CDE90333E9
S3150000102005930D46C3688DF8042002A901A89847C8
S315000010300446002834D1029ABDF80E3072602A7830
S31500001040C3F380030133B2EBC30F34D2AB6813B1E1
S315000010506B78FF2B34D001A8ADF8062003F080FC96
S31500001060044620BBD5E90223C6E902232B78737414
S315000010702A4601A83146FFF779FF7268737CE87843
S31500001080D15CAF786D7960F30511D154D15C0E480F
S3150000109067F30101D154D15C65F3C711D1543060B7
S315000010A0204607B0F0BD0124204607B0F0BD082455
S315000010B0204607B0F0BD40F27A54204607B0F0BD96
S315000010C00324EDE7CC5500005543490068B1836819
S315000010D05BB1C168064A914205D1DA6A6FF3000234
S315000010E0DA6200207047072070470120704700BF72
S315000010F05450470068B183685BB1C168064A9142A3
S3150000110005D1DA6A42F00102DA6200207047072050
S3150000111070470120704700BF5450470020B1034B71
S315000011201B680360002070470120704718550000B7
S315000011302DE9F04782B002AC002544F8045D3C4D31
S315000011408946AF6982469046214603201E464C4694
S315000011500025B847B8F1060F2AD8DFE808F00D4891
S315000011600453575B2D000198324A0023A9FB000166
S3150000117003F0E2FF04460D469AF81530012B32D0F3
S315000011804FF0FF300021A94208BFA0424FF00003F4
S3150000119022D2A208AF0842EA8572B94203F10103DE
S315000011A008BF904214463D46DBB215D2052BF0D15E
S315000011B0032002B0BDE8F08700234FF47A7202FBE9
S315000011C009F21946019803F0B7FF04460D469AF84E
S315000011D01530012B07D000230A9A002013703460C3
S315000011E002B0BDE8F0874FF6FF700021CBE701980B
S315000011F00DA3D3E90023A9FB000103F09DFF0446DC
S315000012000D46B9E701984FF47A72AEE7019CA9FB47
S315000012100445B1E72B464A460198002103F08CFFAE
S3150000122004460D46D3E700BF00CA9A3B0000000003
S315000012302856000040420F00012A70B506461C469B
S315000012402FD02AD3022A26D11A4A0023A4FB010151
S31500001250002503F071FF012E0ED0A94208BFA0425F
S3150000126004D0002908BFB0F1FF3F10D14FF0FF3086
S31500001270049B1860002070BD14F1FF3245F1FF3366
S31500001280101A63EB0101A94208BFA042EED08D42BD
S3150000129008BF8442ECD2032070BD08460025002119
S315000012A0D9E764220023A4FB0101002503F044FFD3
S315000012B0D1E700BFA0860100002836D08368002B46
S315000012C033D0224AC16891422DD130B5DA6A6FF324
S315000012D00002DA6290F91420002A83B027DADA8E47
S315000012E06FF30822DA869A8E04466FF3082202A864
S315000012F000252B219A86237CADF8045000F8041DA6
S31500001300ADF8063003F060FB94F91430657413F100
S31500001310210F04D00E4A126852F833301D600020A7
S31500001320E06003B030BD07207047012070475109C7
S3150000133020310124074D02F01F0204FA02F245F89B
S315000013402120BFF34F8FBFF36F8FC8E7545047007C
S315000013505C5B000000E100E050B149B183683BB13D
S31500001360C068054A904205D19B6C0B60002070470F
S31500001370012070470720704754504700F0B183683A
S31500001380E3B10F4BC2689A4216D110B4EFF3108244
S31500001390012383F310888368DC6AD96A00206FF31F
S315000013A00001D9629864D96A64F30001D96282F3B4
S315000013B010885DF8044B704707207047012070477E
S315000013C05450470058B130B5856885B065B141B114
S315000013D0184CC568A5420AD0072005B030BD0120CB
S315000013E07047032005B030BD012005B030BD0DF1BA
S315000013F00B030025009303AB044603958DF80B50B1
S31500001400FFF796FE0028E8D1A368D96ADA6A60F386
S315000014100002DA62DA6A9DF80B4064F31A62DA6255
S31500001420039A013A5A669864DA6A61F30002DA624C
S31500001430D3E700BF5450470078B1F0B5866885B051
S315000014402EB3012B06D8214CC568A54207D007202C
S3150000145005B0F0BD032005B0F0BD0120704704AF14
S315000014600446002047F8040D1D46736EA07D0097C4
S315000014700133FFF7E1FE0028EDD1039AA3684AB9CC
S315000014801A6B02217DB161F319621A63E3E7012049
S3150000149005B0F0BD511C0FD0196B45B960F3114171
S315000014A019635A65D7E761F311421A63D3E760F30C
S315000014B0196119639A65CEE71A6B1DB142F0407245
S315000014C01A63C8E742F440321A63C4E7545047002F
S315000014D000283DD000293BD02DE9F041D0F8088006
S315000014E082B0B8F1000F35D01D4BC2689A4235D193
S315000014F00C46D8F864301B4A02A90026013341F88D
S31500001500046DA360D8F82C7093690546C7F302678B
S31500001510032098477F00012303FA07F7019AB2FBDD
S31500001520F7F76760D8F83020C2F300022270D8F8C7
S315000015302C2012F0010F18BF334623732B7C03EBCC
S3150000154083035B00B633E381304602B0BDE8F08129
S3150000155001207047012002B0BDE8F0810720F4E7C2
S3150000156054504700285600002DE9F0418AB0002962
S3150000157063D0002861D04B7C934EADF81230044600
S3150000158000232B20ADF810300F468DF81000F268BE
S315000015908DF80B300393CDE90633CDE9083306A960
S315000015A004A890470546002848D10AAA069942F899
S315000015B0140D3369A16004A80621BDF81E80984762
S315000015C0BDF81E309DF8142022755E075CBF01230E
S315000015D063750DF10B0348BF65753A7A7968009318
S315000015E0204603ABFFF7A4FD054638BB7B69002BFD
S315000015F000F0CE8094F91420213200F05781BA69A8
S31500001600C4E900327B7C23743A78012A00F0D0804A
S31500001610FB69022A1D7899781879A0754FF00003A6
S31500001620A574E1746374069300F0A68004A803F021
S3150000163097F9054630B1082500E0012528460AB08D
S31500001640BDE8F081A66804A803F024F9F36A4FEA1E
S31500001650D80865F30003F3624FF425404FF0FF33DB
S31500001660012128F001023060356175617561F5610F
S3150000167035627562B562F56231637563B563F563AC
S315000016803564B564F36433657365B3657366B366D1
S31500001690C6F88850C6F88C308AB17564F36633672D
S315000016A0F3677367C6F88030B367C6F88430C6F848
S315000016B09030C6F89430C6F89830C6F8A050A668A0
S315000016C09DF80B00F26A0699039B6FF31242F262D1
S315000016D0326B42F002023263326B42F00102326335
S315000016E0326B6FF341023263F26A60F31A62F2629E
S315000016F0FA69013B00207366B06432B11378002B9F
S3150000170040F09F809378002B64D17B69002B00F01A
S31500001710CF80BB7C94F914002C4A1B010028126868
S31500001720DBB2C0F2CA8000F1604101F5614181F887
S31500001730003352F830301C6003F0E6F894F91420B8
S31500001740002A0DDB53099B0003F1604303F5614357
S3150000175002F01F02012101FA02F2C3F880211A6089
S31500001760FB7C1BB1F36A43F00103F362184BE360A1
S3150000177028460AB0BDE8F08106AD3A7CF968039BBD
S315000017800095FFF759FD054600283FF44FAF55E792
S315000017903A78012A02D07B7C237439E794F9142025
S315000017A0213200F08380BA69C4E900327B7C23745D
S315000017B0FB691A7898781979A27400230122E074DB
S315000017C0A1756274069331E7CC5500005C5B00009E
S315000017D054504700A368D0789A8E97F800C060F3FB
S315000017E004129A869A8E60F387129A869A8EBCF1B4
S315000017F0010F42F00C029A8665D0BCF1000F00F092
S315000018009880A27D002A40F0A5809A8E012060F380
S3150000181001029A869A8E022060F383029A861A6CD7
S31500001820012060F393421A641A6B002940F08B8002
S31500001830022161F319621A639A8E42F480729A86C3
S3150000184063E7F38E92F801C097F800E06CF3041397
S31500001850F386F38E6CF38713F386F38EBEF1010FD6
S3150000186043F00C03F38649D0BEF1000F66D0A37D8A
S31500001870002B40F08180F38E012060F30103F38694
S31500001880F38E022060F38303F386336C012060F34A
S3150000189011433364336B002967D1022060F311438F
S315000018A03363F38E43F48073F3862BE70B25C5E68B
S315000018B03B78012B7FF454AF2BE7434900F00F0C24
S315000018C061440B7635E700221A651A6C6CF3934275
S315000018D01A64627D012A0CBF4FF6FF724FF0FF3289
S315000018E09A659A8E00285CD1022161F301029A86DC
S315000018F09A8E012161F383029A869DE7F064336C28
S315000019006EF311433364637D012B0CBF4FF6FF73F7
S315000019104FF0FF337365F38EBCF1000F37D1022011
S3150000192060F30103F386F38E012060F38303F386ED
S31500001930B7E79A8E6CF301029A867DE7F38E6EF313
S315000019400103F386ADE7481C35D06FF319621A63BD
S31500001950996571E79A8E022060F301029A869A8E43
S31500001960012060F383029A8659E7481C27D06FF35B
S3150000197011433363716594E7F38E022060F301032C
S31500001980F386F38E012060F38303F3867DE701205F
S3150000199060F30103F386F38E022060F38303F3867C
S315000019A07FE7012161F301029A869A8E022161F393
S315000019B083029A8640E742F040721A633CE743F49A
S315000019C0403333636DE700BFFCEC00E0024658B1DC
S315000019D0064B07491B68002B08BF0B4600205968B9
S315000019E003EB810313607047012070479800FE1FC8
S315000019F00457000078B10A4B1B6873B15A6800F1AE
S31500001A00100103EB820353F8042F40F8042B88429D
S31500001A10F9D100207047012070471C20704700BF95
S31500001A209800FE1F20B1034B1B680360002070471F
S31500001A3001207047E455000040B33AB3174BF0B5A8
S31500001A401E682EB3164B07781B68002404E0013489
S31500001A50B44203F108031BD09D79BD42F7D193F838
S31500001A6005C04588B5EB9C0FF1D1DD7990F801C032
S31500001A7005F0070EE645EAD1B1EBD50FE7D19B8815
S31500001A801470C3F3090353800020F0BD0120704792
S31500001A90DF21FF23117053800B20F0BD1801FE1FBC
S31500001AA05C5B0000F0B4284C216851B1234604F574
S31500001AB07F70002201E053F8041F98420A44FAD1CD
S31500001AC01AB100BE1D20F0BC7047204820490260B4
S31500001AD00B681D0CB5F5807F02D00020F0BC704766
S31500001AE01D68013D0335F8D81A4D5E6AAE42F4D141
S31500001AF003600D686368696804EB830305EB810581
S31500001B00232001214FF47E4602E0013201310138E3
S31500001B1026FA02F4E40707D5072A0FD0082A06D0CA
S31500001B201F5C2C5CA742CCD11029EED1D5E7EC7E08
S31500001B30372CEAD0DF7EA742E7D0C2E72F7F1C7F93
S31500001B40A742E2D2BDE700BF045700009800FE1F7F
S31500001B509CB17F4052374653002850D000294ED0C2
S31500001B602DE9F041864D0278AC6805EB8404A37834
S31500001B709A4252D24FEA121C04EB8C0702F00F066F
S31500001B80B7F8088028FA06FE1EF0010F45D0072E8A
S31500001B90BF7A36D8DFF8F0C17A4A1CF8066006EA42
S31500001BA008061B09925D02333A449B0003EB42038D
S31500001BB0E618E25A96F90160C2F30902002E05EB17
S31500001BC0820332DB4BB346785EBBDF784088D4F8BD
S31500001BD004C03E46C6F30304C7F3031701264F723B
S31500001BE08C728E80002840F0AC8035F822209B78DD
S31500001BF0CB800CEB02220A600872C8600FE001205D
S31500001C00704704EB8C0C02F007069CF80B2002F0E0
S31500001C100F0217444FEA1828BCE74FF4AF60BDE83F
S31500001C20F08140F27950BDE8F08115F82220457820
S31500001C3052083DB9042A00F2A180DFE802F063638E
S31500001C4063503C004FF0020C012604271C78E40781
S31500001C5005F1FF35E5D5052A0CD8DFE802F0232586
S31500001C60181210039A78D41C1CFB026202EB940231
S31500001C7003EB82031A785208002DE7D1DAE708331E
S31500001C80F8E79A7817FB026203EB8203F2E71C7906
S31500001C909A7812FB04F20332033402EB940203EB4C
S31500001CA08203E7E70C33E5E71A79033202F4FE72A2
S31500001CB00C321344DEE7D8785C785D680D6000234B
S31500001CC00246C2F30302C0F303108B800B72CB6093
S31500001CD0A307CC8048728A72A3D500209FE7D878E4
S31500001CE05C789D78CC800246C0F30310C2F30302F1
S31500001CF004330424487200208A728D80CB600C72F3
S31500001D0008608CE7DD781E7940882C46C5F30315FC
S31500001D104D72B5B2C4F3030485428C728D8010D91E
S31500001D20DC889D68012A00FB04540C601DD0022A41
S31500001D300AD0B3F80130CB8000220A72CA60002BA9
S31500001D40CBD140F27A506AE79C78033600FB04F266
S31500001D5002EB96061844F21C03EB8203027BCA8050
S31500001D60CB600C72002AB8D1EBE718440023027B43
S31500001D70CA800B72CB60002AAFD1E2E764204EE73F
S31500001D800457000044550000C4550000034B0430BE
S31500001D901B6823F820100020704700BFDC00FE1FE0
S31500001DA0034B021D1B68002023F82200704700BF6A
S31500001DB0DC00FE1F034B1A68137843F08003137090
S31500001DC000207047DC00FE1F034B1A6813786FF380
S31500001DD0C713137000207047DC00FE1F20B1034BB1
S31500001DE01B680360002070470120704704560000FE
S31500001DF060B1012808D1094B1B680020402141220F
S31500001E00187119711A71704701207047034B1B68CE
S31500001E1040214122987099709A707047DC00FE1F2D
S31500001E20F0B587B0002832D004461A4800230B22AA
S31500001E30CDE90133CDE90333059302A9C3688DF8D3
S31500001E40042001A89847054610B1284607B0F0BD02
S31500001E50114F029B3B6001A802F01CFD606858B15F
S31500001E60A3683E6803EB8000598813F8042B0432FC
S31500001E70834226F82210F7D12378002BE5D03A6862
S31500001E801378284643F08003137007B0F0BD012590
S31500001E90DBE700BFCC550000DC00FE1F094A0A4BF9
S31500001EA012680A4810B4D2E906144FF400421960C9
S31500001EB00021DC60586059619A601A615DF8044B34
S31500001EC0704700BFB400FE1F9C00FE1F00127A0080
S31500001ED0324B1B6893F8283013F0300206D0102AD4
S31500001EE005D0202A2DD02E4A002353617047028D3B
S31500001EF02C4902F0030231F812100029F6D05B06D5
S31500001F0010B444D40324264A038D52F824005DF805
S31500001F10044B06EE900A07EE901AF8EE666AF8EEA3
S31500001F20677AC3F3052386EEA77A013307EE903A64
S31500001F30FAEEEF7A67EE277AFCEEE77AC2ED057ADB
S31500001F40704790F82B30184A9B0932F81310002975
S31500001F50CCD007EE901A124A90F82B30F8EE676A4A
S31500001F60D2ED037AB8EE676A03F01F03C6EE267A4F
S31500001F7007EE103AB8EE477AF7EE006A37EE267AA1
S31500001F8067EE877AFCEEE77A17EE903AADE7038DB7
S31500001F9013F0100F0CBF03240024B4E7B400FE1F97
S31500001FA09C00FE1F2056000010560000F8B50D4B91
S31500001FB005461A68002092F8206092F821700C46B7
S31500001FC002F08CFD95F81334BC405BB25C403440A3
S31500001FD06340DBB285F813340020BDE8F84002F018
S31500001FE04DBD00BFB400FE1FF8B50D4B05461A687F
S31500001FF0002092F8226092F823700C4602F06EFDE3
S3150000200095F88134BC405BB25C4034406340DBB23F
S3150000201085F881340020BDE8F84002F02FBD00BFEE
S31500002020B400FE1F38B505460C46002002F056FDEA
S31500002030052C0AD8DFE804F00319242F3A0E95F888
S3150000204036306FF3000385F836300020BDE838409F
S3150000205002F014BD95F82A306FF3000385F82A3094
S315000020600020BDE8384002F009BD95F838306FF31E
S31500002070000385F838300020BDE8384002F0FEBC89
S3150000208095F890346FF3000385F890340020BDE88E
S31500002090384002F0F3BC95F832306FF3000385F850
S315000020A032300020BDE8384002F0E8BC95F88034B4
S315000020B06FF3000385F880340020BDE8384002F055
S315000020C0DDBC00BF38B505460C46002002F006FD13
S315000020D0052C0AD8DFE804F00319242F3A0E95F8E8
S315000020E0363043F0010385F836300020BDE838402D
S315000020F002F0C4BC95F82A3043F0010385F82A3073
S315000021000020BDE8384002F0B9BC95F8383043F0FD
S31500002110010385F838300020BDE8384002F0AEBC37
S3150000212095F8903443F0010385F890340020BDE81B
S31500002130384002F0A3BC95F8323043F0010385F82D
S3150000214032300020BDE8384002F098BC95F8803463
S3150000215043F0010385F880340020BDE8384002F0E2
S315000021608DBC00BF03290ED0052907D009B1002078
S31500002170704790F83C0000F00100704790F83C0072
S31500002180C0F34010704790F83C00C0F3C0007047A1
S31500002190052935D8DFE801F011181F262D03194B44
S315000021A01B6893F8283013F0300329D090F82A00E2
S315000021B000F0010080F00100704790F8360000F052
S315000021C0010080F00100704790F8380000F001002F
S315000021D080F00100704790F8900400F0010080F054
S315000021E00100704790F8320000F0010080F0010015
S315000021F0704790F8800400F0010080F001007047FD
S3150000220000207047B400FE1F036A90F8263070471E
S3150000221038B5044600200D4602F060FC94F81334ED
S3150000222065F3861384F813340020BDE8384002F0C5
S3150000223025BC00BF38B504460020154602F04EFC0A
S3150000224094F8A23065F3030384F8A2300020BDE8B9
S31500002250384002F013BC00BF084B1B6893F82830C7
S3150000226013F0300F04D104288CBF002001207047E2
S3150000227005288CBF00200120704700BFB400FE1F58
S3150000228090F8260000F00700704700BF38B50446F6
S3150000229000200D4602F022FC94F8263065F3020376
S315000022A084F826300020BDE8384002F0E7BB00BFC6
S315000022B0074B1B6893F828305B0606D5038D13F091
S315000022C0100F0CBF0320002070470320704700BF8B
S315000022D0B400FE1F38B5044600200D4602F0FEFB92
S315000022E0238D032D0CBF6FF3041343F010032385D6
S315000022F00020BDE8384002F0C1BB00BF38B51F4C16
S31500002300236893F8283003F03003102B2DED028B51
S315000023100546B0EE408A19D0202B02D0BDEC028BC8
S3150000232038BD002002F0DAFBFCEEC87ABDEC028B69
S3150000233017EE903A95F82B20013B63F3040285F8DB
S315000023402B200020BDE8384002F098BB002002F0A8
S31500002350C5FB78EE087A2A8DFCEEE77A002017EEA8
S31500002360903A013B63F30D222A8502F087FB23682E
S3150000237093F8283003F03003CEE700BFB400FE1F09
S31500002380F8B5184C236893F8283003F03003102B67
S3150000239005460E4613D0202B00D0F8BD124B002068
S315000023A033F8164002F09AFB95F82B3064F3871346
S315000023B085F82B300020BDE8F84002F05FBB0B4BE0
S315000023C0002033F8117002F089FB2B8D67F30103AF
S315000023D02B85002002F052FB236893F8283003F087
S315000023E03003D8E7B400FE1F085600001856000058
S315000023F038B51A4B1A6892F8293092F82A20054601
S31500002400180748BF08784FF0000448BF60F30E3441
S31500002410D80644BF487860F30A24980644BF8878F3
S3150000242060F30614580644BFC87860F30204D20766
S3150000243044BF0A7962F312441B0644BF4B7963F327
S315000024401E748B79002063F31A6402F047FB2C623A
S315000024500020BDE8384002F011BB00BFB400FE1FEB
S31500002460036AC3F302330B70036AC3F302234B7090
S31500002470036AC3F302138B70036AC3F30203CB70C0
S31500002480036AC3F302430B71036AC3F302734B710E
S31500002490036AC3F302638B71704700BF144B427823
S315000024A01B6893F8241091421ED393F8262090EDD2
S315000024B0017A07EE902AF8EE677AF4EEC77AF1EE23
S315000024C010FA11D493F8253007EE903AF8EE677AB1
S315000024D0B4EEE77AF1EE10FA06D40078032805D0B8
S315000024E0B0FA80F04009704700207047012070471D
S315000024F0B400FE1F062921D8DFE801F0080C1014ED
S31500002500181C0400006AC0F302607047006AC0F33A
S3150000251002307047006AC0F302207047006AC0F3B9
S3150000252002107047006A00F007007047006AC0F3A7
S3150000253002407047006AC0F302707047002070477F
S3150000254008B50246FFF7D6FF92F82630034A03F095
S31500002550070352F8233023FA00F008BD9C00FE1F43
S31500002560024B53F82000C840704700BF9C00FE1F76
S3150000257030B5044683B001200D4602F0AFFA02A83A
S31500002580002300F8013D01F0D5FE94F8AA30DA06E2
S31500002590FBD494F8A030C3F30013002BF5D194F8C4
S315000025A0AA2063F3000284F8AA2094F8AA30DB0676
S315000025B0FBD494F8A030D806F7D494F8A030042DB4
S315000025C00CBF43F0030365F3010384F8A03094F8CD
S315000025D0AA30D906FBD494F8A030C3F30013002B1D
S315000025E0F5D1042D16D094F8AA2063F3000284F8DE
S315000025F0AA2094F8AA30DA06FBD494F8A030DB06B9
S31500002600F7D49DF8070001F0A9FE012002F036FA82
S3150000261003B030BD94F8AA3043F0010384F8AA3021
S31500002620E7E700BF90F8AA30DB075ABF90F8A00092
S3150000263000F003000420704710B50446002002F0A5
S315000026404DFA94F8403043F0800384F8403094F813
S31500002650403043F0010384F840300020BDE81040CC
S3150000266002F00CBA10B50446002002F037FA94F8CE
S3150000267040306FF3000384F8403094F840306FF335
S31500002680C71384F840300020BDE8104002F0F6B9C8
S3150000269090F84000C009704790F8410000F0010032
S315000026A0704700BF38B590F8413013F0010401D1EE
S315000026B0002038BD0546002002F010FA95F841309A
S315000026C06FF3000385F84130002002F0D7F9204669
S315000026D038BD00BF38B5044600200D4602F0FEF9AD
S315000026E094F8303065F3000384F830300020BDE8FC
S315000026F0384002F0C3B900BF10B50446002002F00E
S31500002700EDF994F8523043F0010384F8523000207A
S31500002710BDE8104002F0B2B910B50446002002F040
S31500002720DDF994F852306FF3000384F8523000203C
S31500002730BDE8104002F0A2B970B5044600200D466F
S31500002740164602F0CBF994F83E306FF3C71384F8BF
S315000027503E3094F83E3066F3061384F83E3094F823
S315000027603E3065F3020384F83E300020BDE8704039
S3150000277002F084B910B50446002002F0AFF994F8CF
S315000027803E3043F0800384F83E300020BDE8104020
S3150000279002F074B910B50446002002F09FF994F8CF
S315000027A03E306FF3C71384F83E300020BDE810407A
S315000027B002F064B910B50446002002F08FF994F8CF
S315000027C0533043F0010384F853300020BDE8104035
S315000027D002F054B910B50446002002F07FF994F8CF
S315000027E053306FF3000384F853300020BDE81040E7
S315000027F002F044B938B5044600200D4602F06EF9E1
S3150000280094F8243065F3061384F824300020BDE8DC
S31500002810384002F033B900BF70B40F4B0F4C1D683F
S31500002820002201381A60B0F1807F94F823100ED28E
S31500002830C9B2F026072501F0F001586084F823603C
S315000028409A601D6084F82310012070BC70471D60DB
S31500002850104670BC704700BF10E000E000ED00E0DD
S3150000286090F8503061F3030380F85030704700BF92
S3150000287090F8500000F00F00704700BF90F85030FD
S3150000288043F0800380F85030704700BF90F8503016
S315000028906FF3C71380F85030704700BF90F85000B0
S315000028A0C009704790F8D13021B16FF3000380F86A
S315000028B0D130704743F0010380F8D130704700BF34
S315000028C090F8D13043F0800380F8D130704700BFD4
S315000028D090F8D1306FF3C71380F8D130704700BF3E
S315000028E090F8D100C009704738B5044600200D465F
S315000028F002F0F4F894F8A53065F3020384F8A530E5
S315000029000020BDE8384002F0B9B800BF20B1034B43
S315000029101B68036000207047012070479456000032
S3150000292030B52A4C87B0204601F056FE06A8002591
S315000029300323009500F8183D254B02A9DB68CDE975
S315000029400255CDE904559847029860604FF6FF732B
S3150000295029460193FFF71CFC28B90CE0019B43B103
S31500002960019B013B019300216068FFF7FBFB0028F8
S31500002970F4D0019B33B360680621FFF7B5FF4FF62D
S31500002980FF730193FFF78AFA04216068FFF79AFB49
S3150000299004E0019B43B1019B013B01930421606864
S315000029A0FFF7F6FB0028F4D1019B5BB105226068B6
S315000029B00421FFF729FC60680021FFF715FB0020C2
S315000029C007B030BD4FF4CD7007B030BDB400FE1F68
S315000029D0CC55000038B5124C6068FFF75DFE78B143
S315000029E06068FFF74DFC236893F8283013F0300F2A
S315000029F0054603D05B0608D405280DD0032D0BD061
S31500002A006068FFF74FFE002038BD6068FFF750FC96
S31500002A10052DF3D10328F3D140F2971038BD00BF3E
S31500002A20B400FE1F08B5034B01465868FFF752FE77
S31500002A30002008BDB400FE1F08B5034B5868FFF719
S31500002A405BFE002008BD00BFB400FE1F08B5034BA7
S31500002A505868FFF761FE002008BD00BFB400FE1FE6
S31500002A6008B5044B0A4601465868FFF765FE002084
S31500002A7008BD00BFB400FE1F08B5034B5868FFF73A
S31500002A8079FE002008BD00BFB400FE1F08B5034B49
S31500002A905868FFF77FFE002008BD00BFB400FE1F88
S31500002AA010B5134CD4E9003093F8283013F0300FEA
S31500002AB005D10321FFF76CFB60B1002010BD052195
S31500002AC0FFF766FB0028F8D103216068FFF760FB7B
S31500002AD00028F2D101466068FFF75AFB0028ECD1C6
S31500002AE060680121FFF754FB80F00100C0B210BD01
S31500002AF0B400FE1F38B50446FFF7AEFB50B3631EA5
S31500002B00012B19D9042C17D0052C1ED82923E340F4
S31500002B10DB071AD5104D21466868FFF739FBB0B1BF
S31500002B2021466868FFF71EFB40F29313002814BF86
S31500002B304FF4C970184638BD074B21465868FFF751
S31500002B4027FB20B140F2911038BD002038BD4FF46C
S31500002B50C87038BD032038BDB400FE1F70B50646E8
S31500002B604FF6FE7440F2931501E0013C05D0304665
S31500002B70FFF7C0FFA842F8D000B970BD6FF4C87364
S31500002B80C318012B98BF002070BD00BF38B51B4D80
S31500002B9005282B680BD093F92820002A0C4620DB49
S31500002BA09A68A2420CD25B68A34203D238BD5B6826
S31500002BB09942FBD868680121BDE83840FFF7D8BCC8
S31500002BC093F82830686813F0300F04D10321BDE86C
S31500002BD03840FFF7CDBC0521FFF7DAFA30B968684F
S31500002BE0F4E7FFF75DFF18B92B68D9E72B68DAE73A
S31500002BF068680421BDE83840FFF7BABCB400FE1F80
S31500002C0070B582B00E460446FFF726FB00285FD05B
S31500002C10644D052C6868214614D0FFF7B9FA0028E0
S31500002C2059D16868FFF7FEFC042858D0631E012BB3
S31500002C3079D9042C00F08980002C7DD0032C5DD03E
S31500002C40002046E0FFF7A4FA002851D1002E71D0EB
S31500002C506868FFF715FB05283DD03046FFF71EFCD8
S31500002C60002835D031786868FFF792FA002800F01E
S31500002C70908021466868FFF775FA002862D1D5E989
S31500002C80003093F828305B0600F186807178FFF7F4
S31500002C9077FB96ED010A6868FFF730FB6868FFF777
S31500002CA017F92B6893F82810052001F00F01FFF79C
S31500002CB057FC2B685B6898428CBF0021012168682D
S31500002CC0FFF756FC68680521FFF7ACF9002000E025
S31500002CD0032002B070BD40F2911002B070BD012C0D
S31500002CE001D9032CA2D103216868FFF741FC9DE7B7
S31500002CF06868FFF7EDF840F29110EAE72146686848
S31500002D00FFF730FA0646E8B9D5E9003093F8271000
S31500002D10FFF74CF931466868FFF77AFA0522214633
S31500002D206868FFF787FA68682146FFF77BF9002095
S31500002D3002B070BD0120CCE721466868FFF712FAA1
S31500002D400028F0D040F29310C3E74FF6FF732146F8
S31500002D5068680193FFF71CFAB0B104216868FFF7B1
S31500002D6061F904E0019B43B1019B013B01930421FE
S31500002D706868FFF70DFA0028F4D0019B002B7FF45A
S31500002D805FAF4FF4CD70A4E701466868FFF72CF9F2
S31500002D90E3E74FF4CA709CE73178FFF79BFA68685F
S31500002DA074E700BFB400FE1F70B582B00446FFF79B
S31500002DB053FA60B3304E7068FFF762FA84420346F6
S31500002DC02DD0052B706826D00521FFF7E1F908BB49
S31500002DD0012C706827D02146FFF7DAF9A0B1022C42
S31500002DE00ED0042C2CD0052C0ED82920E040C04350
S31500002DF010F0010508D121467068FFF7B3F9E0B17C
S31500002E0021467068FFF75EF9002002B070BD03200E
S31500002E1002B070BD7068FFF74BFAA042D8D140F2FD
S31500002E20911002B070BDFFF733FC10BB21467068ED
S31500002E30FFF7AEF90028E7D0E2E740F29310E4E7A7
S31500002E4021467068FFF73EF94FF6FF73019304E0E1
S31500002E50019B43B1019B013B019304217068FFF77D
S31500002E6097F90028F4D1019B002BCDD14FF4CD70FA
S31500002E70CBE740F29510C8E7B400FE1F70B169B108
S31500002E8070B5074E044670680D46FFF7F9F92946F6
S31500002E9020707068FFF7E4FA002070BD01207047CB
S31500002EA0B400FE1F38B571B1062827D005280DD00D
S31500002EB004281BD1204B1A6892F82A20D4070BD479
S31500002EC00324204638BD0124204638BD1A4B1A6813
S31500002ED092F92920002AF3DA0D46002401462C60D7
S31500002EE05868FFF72DFB2860204638BD40B9124BC5
S31500002EF01A6892F829201207EED4E1E70E4BEBE7A9
S31500002F00012812D0022809D00328D9D10A4B1A6801
S31500002F1092F829205206DFD40446D5E7064B1A68F4
S31500002F2092F829209406D7D4CAE7034B1A6892F878
S31500002F302920D506D0D4C3E7B400FE1FF0B587B06C
S31500002F400C460746FFF788F9002834D0002C38D005
S31500002F50564E326892F82930190728D52578A07977
S31500002F60A84228D861788D4225D894F803C0AC458C
S31500002F7021D888421FD85BB2002B78DB92F82A2032
S31500002F80D20702D52279824215D3042F1DD10028FB
S31500002F9071D162790AB1002B6DDB7068FFF778FB9F
S31500002FA0002868D17068FFF76BF970681EE06178D9
S31500002FB0E078884203D90325284607B0F0BDA079FA
S31500002FC0D7E70125284607B0F0BD7068FFF758F926
S31500002FD087420AD0052F50D970687B1E012B05D871
S31500002FE03946FFF7D5F800285CD070686946FFF7C8
S31500002FF037FA00217068FFF7BBFA0023A1798DF834
S31500003000083038468DF81430FFF7AAFA06210390E7
S315000030107068FFF795FA049002A801F023FA0546B6
S315000030200028C9D19DF80620A37970689A4231D24A
S315000030302146FFF7DDF939467068FFF727F90621C3
S315000030407068FFF77DFA0123049002A88DF8083016
S3150000305001F008FA05460028AED101F0F3F9144B49
S315000030601860F8B101463846FFF790FDA4E761798C
S31500003070814283D29FE705259EE72923FB40DB0794
S315000030807068AAD53946FFF76DF80028ADD140F231
S31500003090931591E73946FFF7F9F821467068FFF76F
S315000030A0A7F9CCE74FF4C87586E700BFB400FE1F4A
S315000030B03001FE1F70B582B001B30446D8B1334D5E
S315000030C06868FFF7AFFA0428064614D069466868B0
S315000030D0FFF7C6F92B689A6802BBDA680AB1022EB6
S315000030E049D02146012001F089FA6868FFF7A4FA61
S315000030F0002002B070BD012002B070BD234D68688B
S31500003100FFF7CAFA044628B96868FFF7ABFA204603
S3150000311002B070BD4FF4CB7002B070BD032EDCD18F
S3150000312093F829201969100703D59DF800008842F5
S315000031301FD3D00603D59DF80100884219D3960601
S3150000314003D59DF80200884213D3500603D59DF897
S31500003150030088420DD3120613D493F82A30DB07F6
S3150000316003D59DF804308B4203D39DF806308B427D
S31500003170B7D20520C0E793F8292059691607D8D594
S31500003180D3E79DF805208A42E7D2F2E7B400FE1F96
S3150000319038B50E4D0E4C002001F0A0FC6868FFF714
S315000031A06DFB01E06CB1013C6868FFF777FB002816
S315000031B0F8D0002001F062FC002C0CBF1420002087
S315000031C038BD01F05BFC142038BD00BFB400FE1F03
S315000031D0FFFF0F00044B1B6893F82930DB0701D56E
S315000031E0FFF7D6BF06207047B400FE1F38B50E4D58
S315000031F00E4C002001F072FC6868FFF747FB01E007
S3150000320064B1013C6868FFF749FB0028F8D101F07A
S3150000321035FC002C0CBF1420002038BD204601F0E0
S315000032202DFC142038BD00BFB400FE1FFFFF0F00A9
S31500003230044B1B6893F82930DB0701D5FFF7D6BF8F
S3150000324006207047B400FE1FF8B5254D2B6893F88D
S315000032502930DC072AD5234B1E5CFF2E24D0002004
S3150000326001F03CFC6868FFF719FB2B6893F82930DE
S31500003270D90707461FD4314668681B4CFFF7F0FA9A
S3150000328001E0DCB1013C6868FFF7F2FA8642F8D14A
S3150000329027B12B6893F82930DA0709D4002001F00A
S315000032A0EDFBB4B10020F8BD0320F8BD0620F8BD43
S315000032B0FFF76EFFF2E7FFF799FFDCE75FB12B68D8
S315000032C093F82930DB0706D5FFF762FF204601F0A9
S315000032D0D5FB1420F8BD002001F0D0FBF9E700BFB4
S315000032E0B400FE1F98560000FFFF0F0008B500202F
S315000032F001F0F4FB044B5868FFF7E2FA002001F0F6
S31500003300BDFB002008BD00BFB400FE1F044B1B68B8
S3150000331093F82A309B0701D5FFF7E8BF06207047D0
S31500003320B400FE1F08B5002001F0D8FB044B586816
S31500003330FFF7CEFA002001F0A1FB002008BD00BF78
S31500003340B400FE1F044B1B6893F82A309B0701D577
S31500003350FFF7E8BF06207047B400FE1F70B51A4C91
S31500003360236893F82A3099071ED5032800D030BB6E
S315000033700546002001F0B2FB6068FFF7B1FA23684A
S3150000338093F82A309A07064610D429466068FFF754
S3150000339089FA26B1236893F82A309B0711D40020B6
S315000033A001F06CFB002070BD062070BDFFF7BAFF70
S315000033B029466068FFF776FA002EF0D0EAE7032088
S315000033C070BDFFF793FFEAE7B400FE1F08B5064B92
S315000033D01A6892F82920920704D55868FFF7EAF987
S315000033E0002008BD062008BDB400FE1F08B5064B28
S315000033F01A6892F82920920704D55868FFF7EAF967
S31500003400002008BD062008BDB400FE1F08B5074B06
S315000034101A6892F82920520705D501465868FFF721
S31500003420E9F9002008BD032008BD00BFB400FE1F57
S3150000343000B52DED028B83B0CDE9000120B308EE77
S31500003440901A08EE100A00F0FDFF07EE900AB8EE9B
S31500003450677AF7EE006AC6EE877AF8EE688AB8EE03
S31500003460488A67EEA88AC8EE287AFCEEE77A17EE55
S31500003470900AFFF7D1F900280CBF1220002003B0F4
S31500003480BDEC028B5DF804FB032003B0BDEC028BA0
S315000034905DF804FB002800F0AB802DE9F04F89B001
S315000034A0054608A8002300F8113D2F78069306A9C3
S315000034B0CDF81B30FFF7E2FC6A7DEB7C297D8DF8A9
S315000034C010208DF81230EA7DAB7D2E7E8DF811101E
S315000034D038468DF813208DF814308DF81560FEF7F8
S315000034E0BBFE002873D02B7808AA134413F8103CAF
S315000034F0012B6CD0022E66D0DFF85C91D9F8003033
S3150000350093F8283013F0300F14BF4FF0060A4FF02F
S31500003510050A002440F291180DF1100B04E0022B6D
S315000035205AD00134544510D0052CE0B263D014F8BB
S315000035300B30012BF3D1FFF737FC03460028F0D000
S31500003540434545D101345445EED13846FFF706FBD5
S31500003550034600283CD1052F52D0FFF7A1FA80F090
S315000035600100C4B205F10C013846FFF7E7FC03463B
S3150000357070BB9DF80F50AF421BD008AA2A4412F820
S31500003580102C012A47D0D9F804000193FEF790FECB
S3150000359008AB1918019B11F8101C012909D1052D3A
S315000035A007D1874205D00193FFF7FEFB019B002858
S315000035B038D16CB1019300F045FF01463846FFF75C
S315000035C0E5FA019B04E02879FEF746FED0B903230D
S315000035D0184609B0BDE8F08F0021FFF711FB03463E
S315000035E000289ED040459CD0184609B0BDE8F08F13
S315000035F0012318467047022E16D0012E91D19AE764
S315000036000446AFE72B7908AA134413F8103C012BA4
S315000036107FF472AFDBE701902846FFF7C5FB019BFD
S315000036200028B0D00346D3E700212879FFF7E8FA4F
S31500003630034608B14045CBD12879FFF78FFA0346F8
S315000036400028C5D1291D0520FFF7DAFA0346002810
S315000036507FF476AF65E700BFB400FE1F20B1034BD1
S315000036601B6803600020704701207047D456000095
S315000036700620704788B10F4B826A9A420BD1C36904
S315000036805BB190F82420022A09D01A8842F400720D
S315000036901A8000207047072070470120704718885D
S315000036A0C00B04D11A8842F400421A8070470820E1
S315000036B0704700BF4344415298B10B4B826A9A420D
S315000036C00DD1C3696BB190F82420022A1A8814BF61
S315000036D06FF349226FF3CF321A800020704707201C
S315000036E070470120704700BF4344415268B1084B00
S315000036F0826A9A4207D1C3693BB11B88DB0B0CBFB8
S31500003700002008207047072070470120704700BF3F
S3150000371043444152E8B1CB1CDBB21E2B1BD8002917
S3150000372010B407DB134B048853F8244001238B4065
S31500003730234216D0104B846A9C420ED1AAB1C369AB
S31500003740ABB11031002033F8113013805DF8044B13
S315000037507047012070470320704707205DF8044B2F
S31500003760704703205DF8044B70470220EEE7012006
S31500003770ECE700BFE000FE1F4344415230B583B082
S315000037800023ADF806308AB114460DF1060205464F
S31500003790FFF7C0FFBDF8063010B1236003B030BD9F
S315000037A0EA88B2F5004FF8D11B04F6E7022003B011
S315000037B030BD00BF18B311B31A4B826A9A421CD1AE
S315000037C091F90020D31CDBB2122B1DD8002A18DB7E
S315000037D0154B10B4048853F8244001239340234228
S315000037E014D04978062911D9C369CBB11A440020EF
S315000037F082F8E0105DF8044B7047072070470120FF
S3150000380070474978062903D8032070470320F1E75B
S31500003810C369002BF3D01A44002082F8E0107047E9
S315000038200120E7E743444152E000FE1F88B381B31D
S31500003830364B826A9A422AD10379012B5BD070B546
S31500003840C56982B03DB3C46A44B34FF0FF33012665
S31500003850013306FA03F22242FAD01C2B4FD01D2B5D
S315000038604BD010335A0015440D6020230126013B2E
S3150000387006FA03F52542FAD01C2B42D01D2B42D066
S3150000388010335B009B1A5B1001334B6007E0072087
S31500003890704701207047012002B070BD4C601C4A81
S315000038A003881669ADF806300C4600230121202254
S315000038B00546ADF8043021728DF8042000936A465F
S315000038C0022101A8B0470028E6D12B78BDF80220D6
S315000038D0628104335B004FF0FF326372E260EB7A81
S315000038E0012B05D16A695178137843EA0123E36015
S315000038F06B882382D0E7032070471C22B3E71A2285
S31500003900B1E71A23BEE71C23BCE700BF434441527C
S31500003910CC550000D0B110B584B0002304466846EB
S31500003920CDE90033CDE9023300F038FE9DF80C30C6
S315000039309B070DD5E3691A88D20B0CD11B8813F4AB
S31500003940007F14BF1B20002004B010BD012070476B
S31500003950062004B010BD1B2004B010BD30B5B0F871
S3150000396080306FF30003A0F880300388C3F341333F
S31500003970012B038A43F47C5383B00D46038203D1A3
S31500003980038A43F03F030382002404802B88448289
S3150000399020226846ADF80040ADF802308DF80020D0
S315000039A000F074FFEB6ADB000AD52B6903B11C70CB
S315000039B002A800222223019200F8043D00F066FFCF
S315000039C003B030BD002842D03C4B826A9A423CD1BB
S315000039D0C369002B3BD030B5044690F93000002374
S315000039E010F1210F83B0A3620BD098424BDA00F09E
S315000039F08BFF334B94F930201B6853F8323000228A
S31500003A001A6094F9310010F1210F0BD0002820DA4A
S31500003A1000F07AFF2A4B94F931201B6853F83230B4
S31500003A2000221A602146E069FFF798FF02A80025E8
S31500003A302023ADF8045000F8043D2388ADF8063085
S31500003A4000F0C2FF284603B030BD072070470120B2
S31500003A5070474209203201231A4900F01F0003FA79
S31500003A6000F041F82200BFF34F8FBFF36F8F94F938
S31500003A7031000028CCDB4209603200F01F05AB4064
S31500003A8041F82230C4E74209203201230D4900F0F3
S31500003A901F0003FA00F041F82200BFF34F8FBFF377
S31500003AA06F8F94F930000028A1DB4209603200F0E4
S31500003AB01F05AB4041F8223099E700BF434441520D
S31500003AC05C5B000000E100E02DE9F0438DB048B1F9
S31500003AD041B18B88C3F30E034BB1032528460DB0C5
S31500003AE0BDE8F083012528460DB0BDE8F0830C46FD
S31500003AF0064608A8CDE90833CDE90A338D7800F0EB
S31500003B004DFDA37933B19DF82C20D70740F185816F
S31500003B10852BE2D0E27912F0DF0FDED1227A022A7B
S31500003B20DBD8A1780229D8D8E07808B1052BD4D003
S31500003B30206908B10229D0D0012D00F08781BA4B47
S31500003B40B56A9D4200F06D8125886369B74FB36100
S31500003B50306200233580ADF80A502020A588ADF8E4
S31500003B600830CDE90833CDE90A333171F5808DF897
S31500003B700800FB6886F8242002A808A9984705468D
S31500003B800028B0D1BDF82620089BF361C2F382035A
S31500003B900433C2F340125B0072723372A449208868
S31500003BA051F820204AB90B9A558841F8205052689E
S31500003BB0120C12042A4341F820200C2B00F04D81F0
S31500003BC00E2B00F03B81102B02D1E378042B84D11D
S31500003BD002A800F0C5FE0546002884D10890D7F853
S31500003BE0108008AA022102A8C04723699DF9200077
S31500003BF086F83000002B00F0428110F1210F00F012
S31500003C0039818C4AA37A12681B01002852F830C009
S31500003C10DBB2C2B2C0F23881DFF81CE24FEA5019BB
S31500003C2009F120097044012102F01F0201FA02F293
S31500003C3080F80033CCF800604EF82920BFF34F8F90
S31500003C40BFF36F8F96F93000002806DB4309603317
S31500003C5000F01F0291404EF8231000F055FE08AA0E
S31500003C60032102A8C047A3789DF9200086F83100F9
S31500003C70012B00F0F78010F1210F2DD06D4AE37A69
S31500003C8012681B01002852F830E0DBB2C2B2C0F263
S31500003C900381DFF8A4814FEA501C0CF1200C40444C
S31500003CA0012102F01F0201FA02F280F80033CEF879
S31500003CB0006048F82C20BFF34F8FBFF36F8F96F943
S31500003CC03100002806DB4309603300F01F029140F3
S31500003CD048F8231000F018FE00237381C6E9043368
S31500003CE004A8CDE90433CDE90633019300F056FC70
S31500003CF09DF81020019B039322218DF80C10D1060C
S31500003D000ED5CDE90833CDE90A3308A9FB6803A827
S31500003D109847E0B90122089BB2729DF810203361E2
S31500003D20130711D500234FF00108FA688DF80D80AE
S31500003D30CDE90833CDE90A3308A903A8904730B97D
S31500003D40089B86F80B807361BDF81230738031468C
S31500003D50F069FFF703FE002720222388ADF81070D4
S31500003D6004A88DF81020ADF81230CDE90877CDE91A
S31500003D700A7700F08FFDF369A1781F805F821A88A9
S31500003D8061F34E321A801A8867F3C7121A80227AB4
S31500003D90012A00F089803AB9198841F480711980A6
S31500003DA0198A62F30D211982D88994F803C0A18873
S31500003DB0E279A7796CF34200D881A1F50041D88950
S31500003DC0B1FA81F1490961F3CF30D881A2F120021D
S31500003DD0D989B2FA82F2520962F34511D98108A84B
S31500003DE01F7300F0DBFB9DF82C30C3F34003DAB2FF
S31500003DF0337312B1217B00295CD0737A012B07D172
S31500003E00F369002149F69912A3F8B011A3F8A0218D
S31500003E10054B0022C6E90A3265E618063FF57AAE7A
S31500003E205BE608255FE600BF43444152CC550000DF
S31500003E30E000FE1F5C5B000000E100E0E378032B7E
S31500003E403FF4C6AE002B3FF4C3AE46E6258940F2EA
S31500003E5001139D423FF473AE3FE6E378022B7FF6F3
S31500003E60B7AE3AE62369002B3FF405AF10F1210FF8
S31500003E707FF404AF02A800F0A7FD0B2533E610F18E
S31500003E80210F3FF4ECAEBCE61B4902F00F021144D1
S31500003E900B76CCF80060E0E6174902F00F021144F9
S31500003EA00B76CEF8006015E71A8A092161F30D2218
S31500003EB01A8279E73046FFF72DFD044640B102A885
S31500003EC000F082FD3146F0692546FFF747FD0AE618
S31500003ED096F9300000F018FD96F93030002B8CDB97
S31500003EE05A09603203F01F030121044801FA03F363
S31500003EF040F8223081E700BFFCEC00E000E100E082
S31500003F00002800F00E81002900F00B81B74B826A71
S31500003F109A4240F004812DE9F041C66986B0002E30
S31500003F2000F001810B6804460D46002B00F000816D
S31500003F30AF4A018852F8212042F04052D243134240
S31500003F4040F0F68031886868C1F34131012900F0FC
S31500003F50F480002840F0EC80002302A8CDE902336B
S31500003F60CDE9043300F01AFB9DF80820970700F10D
S31500003F70EA80D5E9003111F0405F40F0D98013F0B6
S31500003F8040510BD03088000600F1D280520700F174
S31500003F905D8196F87A20002A40F0CA80327BE96873
S31500003FA0520700F004816A681A4331EA020240F0BF
S31500003FB0BF80002900F0BC802A7C002A40F0648182
S31500003FC06A689FB290B2B780B082180C13438FB262
S31500003FD0120C090C13F0405F3781F080F282718178
S31500003FE05DD00DF11808002302A848F8143DCDE96C
S31500003FF00233CDE9043300F0D1FA7E4B9DF8100070
S315000040009B694146984701997B4B994240F28F80C4
S315000040102B68002840F08C807848039AA0FB0101A9
S31500004020890C774802FB01F7A0FB0727BF09FA1F97
S31500004030F82A7DD8D90000F1CA806A68D20015D561
S31500004040FAB286F8DE20A27A012A00F09E80728AF1
S315000040506FF308227282728A42F480627282EA6880
S31500004060718AC2F3007262F30001718213F0005389
S3150000407040F0A1806A68910011D5FFB286F8DF7022
S31500004080728A63F349227282738A43F400637382ED
S31500004090EB68728AC3F3407363F3410272822B7C2E
S315000040A06A7C2989E76920795B0203F4C0631343BC
S315000040B048F201029142A6F8663046D00228A6F8D8
S315000040C080105FD0B7F80080C8F34138B8F1010F0F
S315000040D000F09A8094F9300010F1210F13D000F00F
S315000040E013FC94F93020002A0DDB53099B0003F1E1
S315000040F0604303F5614302F01F02012101FA02F257
S31500004100C3F880211A6029892B6848F2010291427E
S3150000411036D148F20102A6F88020002009E00720E7
S31500004120704701207047012006B0BDE8F0812B687A
S315000041300320E36206B0BDE8F0810028F8D01A43F8
S315000041400242F5D108E72B6819E7022800F0EE8055
S315000041503B88C3F34133012BBCD13A8A94F9310031
S3150000416042F03F0210F1210F3A8204D0002880F27B
S31500004170BD8000F0C9FB3B886FF386133B80A9E73F
S315000041800020D6E72B680020D3E71E480023222212
S31500004190CDE90133CDE90333059302A9C3688DF850
S315000041A004204046984700285DD02B68C1E70029C7
S315000041B03FF402AFBCE7FFB286F8DF70738A43F4C0
S315000041C000737382738A6FF3CB23738260E7FAB24C
S315000041D086F8DE20A27A012AD7D0728A42F480724B
S315000041E07282728A6FF38A22728238E7434441529E
S315000041F0E000FE1F285600003F420F0083DE1B43EF
S31500004200D34D6210CC55000094F9310010F1210F06
S3150000421012D000F079FB94F93130002B0CDB5A09EF
S31500004220920002F1604202F5614203F01F0308FAB0
S3150000423003F3C2F8803113603B8843F040033B80B0
S315000042403B8A0A2262F305033B8243E7B1F1405FF2
S315000042503FF46EAF33F070427FF46AAF2279002AE2
S315000042603FF49CAE64E7404600F014FB22692B68DD
S31500004270117841F0800111701178D80041F01001D9
S3150000428011707FF5E4AEA8E7002302A8CDE902335A
S31500004290CDE9043300F082F99DF80830DB077FF59D
S315000042A046AF297C2B6807293FF642AF6A7C032A72
S315000042B07FF63EAF37886A68C7F34137012F01EAB8
S315000042C0020C01EA03002CD081427FF431AF318821
S315000042D00F0608D4BCF1000F03D0298900297FF40A
S315000042E027AFE9686DE60028F4D021E742092032BD
S315000042F000F01F01DFF838C003FA01F14CF8221074
S31500004300BFF34F8FBFF36F8F94F931000028FFF68C
S3150000431030AF4209603200F01F018B404CF822306A
S3150000432027E78142D3D06145D1D001E72B68F0E67B
S3150000433000E100E068B1084AB2F8001192F80031D5
S31500004340C1F300016FF300030170002082F8003111
S3150000435070470120704700BF00C00140104991F826
S31500004360043143F0010381F80431B1F80431DB076D
S315000043700AD54FF0FF3300E07BB1B1F80421D20734
S3150000438003F1FF33F8D443B1054A92F8003160F3E4
S31500004390000382F80031002070471420704700BFE8
S315000043A000C0014070B5254D82B02B6898470120AA
S315000043B0FFF7D4FF0021AE680320B0470121204A51
S315000043C0EC698DF80110032301928DF8003003206B
S315000043D0A047B0F5C97FFAD169460520B04728B194
S315000043E040F29113984201D000BEEC690520A04727
S315000043F0B0F5C97FFAD10223012200208DF806000C
S315000044008DF801308DF802308DF8053069468DF84B
S3150000441000208DF803208DF804202B69052098478D
S3150000442000B100BE2B6E04209847AB6A0120984766
S31500004430EB6A9847AB6D984702B070BD28560000EE
S315000044400000A04100B583B002A9002341F8043D55
S31500004450034B06209B699847019803B05DF804FB5F
S31500004460285600000378C3B1012B14D18368454A4E
S31500004470017B93424AD9444A93425CD9434A92F813
S315000044801C3103F00703994205D092F81C3161F301
S31500004490020382F81C3100207047426839498A427B
S315000044A053D93B4B70B4F1251D71197A364E41F044
S315000044B004011972197A41F008011972197A41F04A
S315000044C001011972197AF02441F00201B2421972FF
S315000044D01C7105D91D71197A41F0100119721C71F0
S315000044E02C4B2A499A4294BF01230223037391F865
S315000044F01C2102F007029A4205D291F81C2163F3AF
S31500004500020281F81C21002070BC7047204BF1226A
S315000045101A711A7A6FF382021A721A7A6FF3C30249
S315000045201A721A7A6FF300021A721A7AF0206FF36F
S3150000453041021A721871164BF1221A711A7AF0207A
S315000045406FF304121A72187198E713498A4205D854
S315000045500E4A037392F81C31002070470D4B0B492D
S315000045609A4294BF01230223037391F81C2102F09F
S3150000457007029A428FD291F81C2163F3020281F856
S315000045801C2188E7000E270700C2EB0B00C0014084
S31500004590002000400068890900B4C4040378027B47
S315000045A041F2360103F0E00342F0010210B441602B
S315000045B0022443F0130341F204016FF341028460C5
S315000045C00370418002735DF8044B7047037843F033
S315000045D003030370704700BF014B0360704700BFC1
S315000045E0D8560000044B002103F1300243F8041BA7
S315000045F09342FBD1704700BFE800FE1F024B43F811
S3150000460020100020704700BFE800FE1F08B56F4B62
S31500004610B3F84031D90700F1CB806C4BB3F8403189
S315000046209A0700F1B880694BB3F840315B0700F197
S31500004630A580664BB3F84031180700F19280634BB2
S31500004640B3F84031D9067FD4604BB3F84001C0F3CC
S31500004650801000286CD15D4BB3F840311A065AD44D
S315000046605A4BB3F84031DB0548D4584BB3F84031C8
S31500004670980536D4554BB3F84031590524D4534BDD
S31500004680B3F840311A0512D4504BB3F84031DB046D
S3150000469000D408BD4E4BDB6A0BB10B2098474B4A42
S315000046A0B2F8303143F48053A2F8303108BD484B9C
S315000046B09B6A0BB10A209847444AB2F8303143F45A
S315000046C00063A2F83031DFE7414B5B6A0BB109208A
S315000046D098473E4AB2F8303143F48063A2F830314D
S315000046E0CDE73B4B1B6A0BB108209847374AB2F817
S315000046F0303143F40073A2F83031BBE7344BDB6949
S315000047000BB107209847314AB2F8303143F4807331
S31500004710A2F83031A9E72E4B1B680BB10020984751
S315000047202A4AB2F8303143F08003A2F8303197E7D5
S31500004730274B5B6803B19847244AB2F8303143F0FF
S315000047404003A2F8303186E7214B9B690BB1062066
S3150000475098471E4AB2F8303143F01003A2F83031C0
S3150000476072E71B4B5B690BB105209847174AB2F8F5
S31500004770303143F00803A2F8303160E7144B1B696F
S315000047800BB104209847114AB2F8303143F00403C4
S31500004790A2F830314DE70E4B9B680BB102209847CB
S315000047A00A4AB2F8303143F00203A2F830313AE750
S315000047B0074BDB680BB103209847044AB2F8303147
S315000047C043F00103A2F8303127E700BF0060004044
S315000047D0E800FE1F114B01785A5C02F01F03920697
S315000047E030B4448845780DD501222B2902FA03F00E
S315000047F00ED0332904D1012D04BF013305FA03F08D
S3150000480030BC70472C441B1B0120984030BC7047BD
S31500004810072CF5D9013302FA03F0F1E7045B000037
S315000048200378452B1CD870B5164CE55CFF2D26D0B9
S3150000483014460E46FFF7CEFF134BAA0953F8223053
S3150000484086B1AA0600D5D4B1EFF31082012181F317
S31500004850108819680843186082F31088002070BD1C
S3150000486001207047EFF31082012181F31088196847
S3150000487021EA0000186082F31088304670BD0320DC
S3150000488070BD00BF045B00004C5B000000220121EC
S31500004890FFF7C6BF00221146FFF7C2BFA0F1010015
S315000048A00028FBD1704700BF2DE9D04301FB00F47F
S315000048B0FFF7C8FD4FF47A71A4FB018900274FF07A
S315000048C0FF364F4508BF46450E4BB3FBF0F007D306
S315000048D0B8FBF0F0800890B1BDE8D043FFF7DEBF2B
S315000048E08000B4FBF0F0A0FB01018F4208BF8642B6
S315000048F0F1D24FF0FF30BDE8D043FFF7CFBFBDE8A0
S31500004900D08300BF00CA9A3B002808DB800000F174
S31500004910804000F5C64003686FF31043036070479C
S315000049200B4A0C4B10B49B1A0B4CDB08236063B18B
S315000049300A4800219388C3F3090340F8043B23681F
S3150000494001318B4202F10802F4D85DF8044B70473E
S3150000495000050000080500001801FE1F0063004066
S31500004960164B10B41C687CB1154B00681A681368A6
S31500004970984218BF002304D10AE052F8041F81426E
S3150000498007D00133A342F8D103205DF8044B7047EA
S3150000499000230C4A12680121134403E0C3E8401FB8
S315000049A00028F2D0D3E84F2F12F0FF0FF6D0BFF356
S315000049B02F8F08205DF8044B704700BF1C01FE1FB7
S315000049C02001FE1F2401FE1F0F4B10B41C687CB192
S315000049D00E4B00681A681368984218BF002304D16A
S315000049E009E052F8041F814206D00133A342F8D1F0
S315000049F05DF8044B70470023054A12680021D15424
S31500004A005DF8044B704700BF1C01FE1F2001FE1F0E
S31500004A102401FE1FF0B5134E134C1449144A154BCE
S31500004A20DFF854C00E60A41BA4081460C3F800C0CD
S31500004A308CB106EB840735464FF0000E55F8040B93
S31500004A403246002352F8041B884205D001339C42AB
S31500004A50F8D1BD42F2D1F0BDBD420CF803E0EDD174
S31500004A60F9E700BF08050000B80600002001FE1F98
S31500004A701C01FE1F2401FE1F1800FE1FEFF310810C
S31500004A80012383F31088124B33F8102092B22AB117
S31500004A9033F81020013A92B223F8102033F8103080
S31500004AA09BB28BB90B4A10B40B4CB2F8FE3334F8F8
S31500004AB0100043F4254323EA0003A2F8FE3381F3F2
S31500004AC010885DF8044B704781F31088704700BF6B
S31500004AD02801FE1F00E00140605B000030B4EFF3E8
S31500004AE01081012383F310880C4A32F810309BB2F0
S31500004AF053B90B4C0B4DB4F8FE3335F8105043F454
S31500004B0025432B43A4F8FE3332F8103001339BB211
S31500004B1022F8103081F3108830BC70472801FE1F40
S31500004B2000E00140605B0000024B00221A805A80C0
S31500004B309A8070472801FE1F00BE704708B500F036
S31500004B4005F800F051F9FEE7704700BF284AD2F891
S31500004B50883043F4700370B50020C2F88830FFF740
S31500004B60F3FFFFF73FFD234B1B689847FFF7DCFF7A
S31500004B70FFF718FC204A214B21481B6800241480AB
S31500004B8098472049204B8B4204D0224603F8012D3A
S31500004B909942FBD11D481E4B984206D01D4A12F879
S31500004BA0011B03F8011B8342F9D1FFF74BFC1A4B9B
S31500004BB01A4D18600120FFF7C7FF194B5B1B002B2E
S31500004BC04FEAA30606DD0024013455F8043B984756
S31500004BD0A642F9DCFFF71EFFFFF7A2FE114B1248B3
S31500004BE01B6898470020BDE8704000F01FB800BF62
S31500004BF000ED00E0CC550000D800FE1FB0540000C8
S31500004C00105C0000BC00FE1FFC01FE1F8400FE1F9E
S31500004C100000FE1F745F00003001FE1F1000FE1F23
S31500004C201400FE1FE8550000685B000000F040B865
S31500004C3082B04FF0C84300210091009A1A7D61F3BB
S31500004C4000021A751A8DC8B1202161F30F221A8548
S31500004C501A8D4FF0C04142F080021A850A68009210
S31500004C6040F6FF72019204E0019A013A0192019A1C
S31500004C7012B19A6A5106F7D502B0704742F47F42E4
S31500004C801A851A8D4FF0C04160F3C7121A850A685B
S31500004C90009240F6FF72019205E0019A013A0192F4
S31500004CA0019A002AE8D09A6A5206F6D402B07047F2
S31500004CB0F8B54A4A11684FF0C84400236FF38611CD
S31500004CC0102011602063A36123626363C4F8043873
S31500004CD0227A63F304022272237DFF2243F001034A
S31500004CE023752261237D662243F001032375226129
S31500004CF0237D992243F0010323752261237D43F02E
S31500004D000103237501212320FFF7CEFD9F23236195
S31500004D102269334BD2B21A702169C9B2597020691F
S31500004D20257DC0B245F00105EF2A9870257503D0A0
S31500004D3000221A809A70F8BD4029F9D11728F7D1B8
S31500004D40052121612669227D264B42F00102352587
S31500004D502275256122691A70227D42F001022275B0
S31500004D60228D042060F3030222852279502760F306
S31500004D70030222712761227D1F7842F0010222750B
S31500004D80F2B247F002061E700127276122611A78E7
S31500004D902261227D3A4322752061227D3A432275A3
S31500004DA0228861F30202228021612269227D3A4330
S31500004DB02275256122691A70237D3B43237523885A
S31500004DC043F040032380A369DB07FCD40120FFF7EF
S31500004DD02FFF237D6FF300032375F8BD0070044099
S31500004DE03401FE1F3801FE1F08B500F03BF8002015
S31500004DF008BD00BF30B4124B124C59682268124BE2
S31500004E0012481960914238BF521A114D0368216049
S31500004E102CBF8A1AD243A5FB02120E4C0E490F4D27
S31500004E2003EBC3031209B1FBF2F10B44A4FB0343EA
S31500004E300B4C2A60DB082160036030BC704700BF62
S31500004E40001000E08C01FE1F8401FE1F7C01FE1F86
S31500004E50ABAAAAAACDCCCCCCD4CB79048801FE1FB0
S31500004E609001FE1F2DE9F04F924B934C1868DFF826
S31500004E70BC92D3E901122DED048B126887B09047DE
S31500004E802368D4F80C80616802931D462846D8F83A
S31500004E9000309847A168D8F8043028469847D8F8D3
S31500004EA0083028469847854B1A689F6859680392C8
S31500004EB0144620463A689047BB6820469847804B80
S31500004EC0804A5E6880491160F36901960DF1170109
S31500004ED005209847D8F814307C4A28460021984780
S31500004EE0B9F80030DFED7A6A9FED7A7A7A4A07EEF2
S31500004EF0903AF8EE677A9DF8173067EEA67A012B9E
S31500004F0087EE876A82ED006A21D1704CF0EE668AE0
S31500004F10B0EE478AF3690DF1170105209847D8F8D6
S31500004F2014300298224600219847B9F800306A4AA0
S31500004F3007EE903AF8EE677A9DF8173067EEA87A92
S31500004F40012B87EE887A82ED007AE3D00196634BD7
S31500004F5063491960022200230398BE69DFF8D0A1D5
S31500004F60604D614C9FED619ADFED5A8A9FED608A34
S31500004F70DFF8C0B1DFED5F9AB047019B01211B6AE4
S31500004F8040F20D1098475C4B5C4818600121FFF712
S31500004F908BFC17E0F4EEC86AF1EE10FAD5BFFCEE12
S31500004FA0E67A574B17EE901A83ED008A4B48BE6996
S31500004FB00160002302220398B047012144F6AD2088
S31500004FC0FFF772FC4F4B1B78012B6DD04D4B012127
S31500004FD01970019B4FF4C0601B6A9847D8F81430CB
S31500004FE03A4A029800219847384AB9F800301088A2
S31500004FF0454A46499AED007A0968009103EBC303D6
S315000050000344A2FB0323C3F3CF0307EE903AF8EE63
S31500005010674ADDED007AA9F80030F8EE677A64EEAB
S31500005020894ABCEEE74A3A4BD5ED006A94ED005A40
S3150000503038499BED006AD1ED005A374914EE102A23
S3150000504084EEA84A1A60354BC3ED007A74EE677A8F
S31500005050214BC4ED007A27EE877A83ED004A37EEBE
S31500005060267A27EE866A2E4B85ED007A37EEC55AEC
S31500005070C3ED007A76EE076A2A4B25EE256A83EDA4
S31500005080007A76EE866A1E4BF5EEC06AC3ED006ABC
S31500005090254BF1EE10FA83ED006A7FF57BAF184BD6
S315000050A00021C3ED009A81E7164B4FF000021A70FB
S315000050B000218EE7BC5B00007C5B0000DC5B00002F
S315000050C0745B0000D001FE1F87E0B44BF401FE1FA5
S315000050D000404E4500F07F45C801FE1F6C01FE1FD3
S315000050E0A0860100F001FE1F7401FE1F00806D44C2
S315000050F000C8AF4700000000E401FE1F20A1070022
S315000051008001FE1F0C00FE1FCDCCCCCC7C01FE1F07
S315000051107801FE1F0800FE1F905F01007001FE1F50
S31500005120DC01FE1FD401FE1FCC01FE1FE801FE1F9D
S315000051300400FE1F0000FE1F53B94AB9002908BF2C
S3150000514000281CBF4FF0FF314FF0FF3000F072B95E
S31500005150ADF1080C6DE904CE00F006F8DDF804E0C8
S31500005160DDE9022304B070472DE9F047089E0446A6
S315000051708846002B4BD18A42154667D9B2FA82F28D
S315000051804AB1C2F1200701FA02F320FA07F7954067
S3150000519047EA030894404FEA154E230CB8FBFEF786
S315000051A01FFA85FC0EFB178843EA084307FB0CF140
S315000051B0994209D9EB1807F1FF3080F01B8199421B
S315000051C040F21881023F2B445B1AA4B2B3FBFEF0F7
S315000051D00EFB103344EA034400FB0CFCA44509D93A
S315000051E02C1900F1FF3380F00781A44540F20481B9
S315000051F002382C4440EA0740A4EB0C0400271EB1F9
S31500005200D4400023C6E900433946BDE8F0878B4207
S3150000521009D9002E00F0EB800027C6E900013846C8
S315000052203946BDE8F087B3FA83F7002F47D18B42A2
S3150000523002D3824200F2FA80841A61EB0303012052
S315000052409846002EE0D0C6E90048DDE702B9FFDE49
S31500005250B2FA82F2002A40F08F80491B4FEA154EBF
S315000052601FFA85F80127B1FBFEFC230C0EFB1C116F
S3150000527043EA014308FB0CF1994207D9EB180CF1FC
S31500005280FF3002D2994200F2CD808446591AA3B269
S31500005290B1FBFEF00EFB101443EA044408FB00F8D1
S315000052A0A04507D92C1900F1FF3302D2A04500F220
S315000052B0B6801846A4EB080440EA0C409FE7C7F105
S315000052C0200CBB4022FA0CFE4EEA030E01FA07F44C
S315000052D020FA0CF521FA0CF34FEA1E482543B3FBDE
S315000052E0F8F92C0C08FB19331FFA8EFA44EA03432B
S315000052F009FB0AF49C4202FA07F200FA07F10BD9FD
S315000053001EEB030309F1FF3080F087809C4240F2D8
S315000053108480A9F1020973441B1BADB2B3FBF8F0FC
S3150000532008FB103345EA034400FB0AFAA24508D9F4
S315000053301EEB040400F1FF336BD2A24569D9023893
S31500005340744440EA0940A0FB0289A4EB0A044C45D8
S31500005350C2464B4654D351D0002E69D0B1EB0A0554
S3150000536064EB030404FA0CFCFD40FC404CEA050522
S31500005370C6E90054002747E7C2F1200320FA03F7E5
S31500005380954001FA02F021FA03F34FEA154E38432D
S31500005390010CB3FBFEF71FFA85F80EFB173341EA43
S315000053A0034107FB08F38B4204FA02F407D9691894
S315000053B007F1FF3C2FD28B422DD9023F2944CB1A4D
S315000053C081B2B3FBFEF00EFB103341EA034100FB52
S315000053D008F38B4207D9691800F1FF3C17D28B42BC
S315000053E015D902382944C91A40EA07473BE7374628
S315000053F0304609E70746E7E61846FBE64145ABD2E5
S31500005400B8EB020A69EB0E0201381346A4E76046C0
S31500005410E9E7184695E76746D1E781467CE7023813
S315000054202C4447E7ACF1020C2B442FE7384608E73B
S315000054303746E9E6704700BF4275696C74207769A4
S3150000544074682052656E657361732053796E657258
S3150000545067792028544D2920536F667477617265E9
S31500005460205061636B6167652076657273696F6E44
S3150000547020312E352E332B6275696C642E646333AE
S31500005480343864326132323336000000312E352E24
S315000054903300000000030501F8B500BFF8BC08BCE6
S315000054A09E467047F8B500BFF8BC08BC9E467047DC
S315000054B0D90B0000C90B0000610C0000E1080000D8
S315000054C09507000021080000B50A0000F906000053
S315000054D08D080000E90900006D070000E9070000DB
S315000054E045070000B1090000790800000204030422
S315000054F00404FFFF05100000CD0E0000BD0D0000E6
S315000055002D0D0000590D0000810D0000310E000028
S31500005510A90D0000050102010A0104016915000038
S31500005520CD100000F51000007D1300005913000097
S31500005530C513000039140000D1140000B912000090
S315000055401D11000000010102010202030102020313
S315000055500203030401020203020303040203030419
S315000055600304040501020203020303040203030405
S3150000557003040405020303040304040503040405E9
S3150000558004050506010202030203030402030304E1
S3150000559003040405020303040304040503040405C9
S315000055A004050506020303040304040503040405B5
S315000055B00405050603040405040505060405050699
S315000055C005060607000103070F1F3F7FA51A000007
S315000055D0CD190000F5190000591B0000391A00000A
S315000055E0251A000006010301211E0000F11D00001E
S315000055F08D1D0000A11D0000B51D0000C91D000085
S31500005600DD1D000003010201000001000000020090
S31500005610010002000400FFFF000001000200FFFF7E
S31500005620010002000300FFFF21290000953400005D
S31500005630012C0000A92D00003D2F00007D2E00004A
S31500005640A52E0000F52A0000B5300000D52900007F
S31500005650252A0000392A00004D2A0000612A000090
S31500005660792A00008D2A000049320000D531000059
S31500005670313200005D3300000D3300004533000079
S31500005680CD330000ED3300000D340000313400004E
S315000056900D2900000C01030104FF000201FFFFFFBA
S315000056A0C93A0000013F000075360000B936000017
S315000056B0ED360000153700007D370000B5370000D5
S315000056C01539000071360000C53900002D3800007C
S315000056D05D3600000801090140420F00000000008D
S315000056E040420F000000000004000000020000001D
S315000056F0002D310100366E0130040201020A1E003F
S31500005700D0FE010002000310040000001C0000008F
S3150000571013000000030E0010FFFFFFFFFFFFFFFF57
S31500005720FFFFFFFFFFFFFFFF523746533747323772
S315000057304833413031434643575331343431413194
S31500005740303000000000000002B06400F0000000ED
S3150000575001000810F3E0BFB6057933498B43F24FD9
S315000057601693A05D1E7A1DD8700D7A8242786A5E05
S31500005770C35C0B190400501100000040FFFF000835
S31500005780FFC110081FFF1B057F0028073F002F06DB
S315000057903E8047804C806A0064806B0082005680A1
S315000057A06E00BD80B08083006F005B807000720069
S315000057B071007300740075008A8086808D80CF80AA
S315000057C076006C006D00B5807B007A007C00A080BE
S315000057D077007800790090809A80978084009D8079
S315000057E0A3807D00D580D880A6808500AD80A98065
S315000057F0DE807E007F008000810000000607021028
S3150000580000000000FFFF0000002000000001000073
S3150000581000000100FFFF3F000080000000010000C3
S315000058200607011000001040FFFF10404000000076
S31500005830040000000A000410070B0B0F0000FE1FF7
S31500005840FFFFFF1F00000020FFFF032000000420D1
S31500005850FFFF072000E00F20FFFF0F2001070010C9
S3150000586008004000005000400803011000520040AC
